:1000000000308A0019280000223084008313000881
:10001000031918280130F800F701F70B0D28F80B29
:100020000C284A30F700F70B13281628800B0A28F3
:10003000080003081F39830083168E1507308312CA
:100040009F008313831605168312051E3E28831610
:100050008613831286170430A100FA30A200042010
:10006000A10B2D2883168613831286130430A1005A
:10007000FA30A2000420A10B3828542883168613D6
:10008000831286170230A100FA30A2000420A10BCF
:10009000442883168613831286130230A100FA3097
:0C00A000A2000420A10B4F2822286300BE
:02400E00183F59
:00000001FF
;PIC16F628A
;CRC=FA1F  CREATED="11-nov-16 23:24"
