:1000000000308A0018280000223084008313000882
:10001000031917280630F800F701F70B0D28F80B25
:100020000C287B30F700F70B1328800B0A280800F8
:1000300003081F398300FF30A00020132008831617
:1000400087008312071383161F149F141F159F1117
:1000500007309C0083138613831286170230A10099
:10006000FA30A2000420A10B3028831686138312D5
:1000700086130230A100FA30A2000420A10B3B2815
:0600800083162B2863002B
:02400E00323F3F
:00000001FF
;PIC16F877A
;CRC=981F  CREATED="07-nov-16 10:47"
